:100000000C944A000C9469000C9469000C946900EB
:100010000C9469000C9469000C9469000C946900BC
:100020000C9469000C9469000C9469000C946900AC
:100030000C9469000C9469000C9469000C9469009C
:100040000C94D4010C9469000C9469000C94690020
:100050000C9469000C9469000C9469000C9469007C
:100060000C9469000C94E5010C9469000C946900EF
:100070000C9469000C9469000C9469000C9469005C
:100080000C948D000C9469000C94C3000C946900CE
:100090000C94690011241FBECFEFD0E1DEBFCDBFAD
:1000A00011E0A0E0B1E0E6EEF2E100E00BBF02C03B
:1000B00007900D92A030B107D9F713E0A0E0B1E0AE
:1000C00001C01D92A433B107E1F70E9476060C949B
:1000D00071090C940000E9ECF0E088E18083109253
:1000E000CD0080E18093CC0086E08093CA008081BF
:1000F0008068808310925501109254011092020181
:10010000109201011092A9011092A80110925701BA
:10011000109256011092530108951F920F920FB63C
:100120000F920BB60F9211248F939F93EF93FF932F
:1001300080915401909155010196909355018093BF
:1001400054018035910521F410925501109254010B
:10015000E0915401F09155018091010190910201CB
:10016000E817F90729F08091CE00ED5FFE4F8083FC
:10017000FF91EF919F918F910F900BBE0F900FBE4B
:100180000F901F9018951F920F920FB60F920BB6FB
:100190000F9211242F933F938F939F93EF93FF938D
:1001A00020915601309157018091A8019091A901A9
:1001B00082179307B9F0C901019690935701809374
:1001C00056018035910521F4109257011092560185
:1001D000E0915601F0915701E85AFE4F80818093DB
:1001E000CE0007C08091C9008F7B8093C900109218
:1001F0005301FF91EF919F918F913F912F910F901C
:100200000BBE0F900FBE0F901F90189520915601B6
:10021000309157018091A8019091A901821793070D
:10022000F1F081E0809353018091C9008064809354
:10023000C900C901019690935701809356018035FA
:10024000910521F41092570110925601E091560148
:10025000F0915701E85AFE4F80818093CE000895B7
:10026000282F8091A8019091A90101969093A9014E
:100270008093A8018035910521F41092A901109274
:10028000A801E091A801F091A901809156019091F7
:100290005701E817F90719F0E85AFE4F20838091BB
:1002A0005301882311F40E9406010895982F80912C
:1002B000C80085FFFCCF9093CE000895DC0129C0D3
:1002C0008091A8019091A90101969093A901809332
:1002D000A8018035910521F41092A9011092A8017E
:1002E000E091A801F091A9018091560190915701E8
:1002F000E817F90729F0E85AFE4F8D91808309C06D
:100300001092A9011092A801109257011092560163
:1003100003C08C918823A1F680915301882311F4A6
:100320000E94060108958091C8008074089540E0FD
:100330002091540130915501809101019091020169
:100340002817390709F041E0842F089580910101B1
:1003500090910201019690930201809301018035F2
:10036000910521F41092020110920101E091010126
:10037000F0910201ED5FFE4F8081089502C08091EF
:10038000CE008091C80087FDFACF08951092BD017C
:100390001092AB011092AA0182E080936E008BE074
:1003A00084BD89EF87BD08951F920F920FB60F92FB
:1003B00011248F938091BD018F5F8093BD018F9138
:1003C0000F900FBE0F901F9018951F920F920FB6AF
:1003D0000F920BB60F9211242F933F934F938F934D
:1003E0009F93EF93FF93E091C701F0E02091780095
:1003F00040917900942F80E030E0822B932BEE0F18
:10040000FF1FEE52FE4F918380838091C7018F5F63
:100410008093C7018091C701833010F01092C7010B
:10042000E091C701F0E0E853FE4F80818064809343
:100430007C0080917A00806480937A00FF91EF9134
:100440009F918F914F913F912F910F900BBE0F90E5
:100450000FBE0F901F90189588E78DB91EB811B880
:1004600012B80895EF92FF920F931F936091BF010E
:100470007091C0018091C1019091C20123E933E0E4
:1004800040E050E00E94AF0824E630E040E050E059
:100490000E94E2082F5B3F4F4F4F5F4F2093E401D4
:1004A0003093E5014093E6015093E7011092E80193
:1004B0001092E9011092EA011092EB0180B12091B3
:1004C000DD0190E08F709070892B29F0222319F4C0
:1004D00084E08093D8012091D801233009F4D2C060
:1004E000243030F4213059F0223009F08BC168C03B
:1004F000243009F45BC1253009F084C168C17398C8
:10050000749A1092B3011092B2011092E10110920C
:10051000DD01E090E401F090E5010091E601109129
:10052000E701B091E801A091E901F091EA01E091C1
:10053000EB018091E2019091E30140969C0140E043
:1005400050E060E070E080E090E09E1708F4EEC0BC
:10055000E91709F58F1708F4E9C0F817E1F47A17DD
:1005600008F4E4C0A717B9F46B1708F4DFC0B61796
:1005700091F4511708F4DAC0151769F4401708F41C
:10058000D5C0041741F43F1508F4D0C0F31619F490
:100590002E1508F4CBC0E090E401F090E501009145
:1005A000E6011091E701F091E801E091E901309155
:1005B000EA012091EB018091E2019091E30124C1D5
:1005C000739A74981092B3011092B2011092E101E3
:1005D0001092DD01E090E401F090E5010091E60168
:1005E0001091E701B091E801A091E901F091EA01D1
:1005F000E091EB018091E2019091E30140969C0132
:1006000040E050E060E070E080E090E09E1708F489
:10061000FBC0E91709F58F1708F4F6C0F817E1F4E5
:100620007A1708F4F1C0A717B9F46B1708F4ECC0F7
:10063000B61791F4511708F4E7C0151769F440177D
:1006400008F4E2C0041741F43F1508F4DDC0F316C6
:1006500019F42E1508F4D8C0E090E401F090E501FB
:100660000091E6011091E701F091E801E091E901C4
:100670003091EA012091EB018091E2019091E30138
:1006800040976BC0749A739A1092E1011092DD0149
:100690008091B2019091B30101969093B301809340
:1006A000B2011092D0011092CF018091B2019091CD
:1006B000B3010B9708F4ABC0E090E401F090E501C2
:1006C0000091E6011091E701B091E801A091E901E4
:1006D000F091EA01E091EB018091E2019091E30158
:1006E0000A969C0140E050E060E070E080E090E01D
:1006F0009E17E0F0E917E1F48F17C0F0F817C1F486
:100700007A17A0F0A717A1F46B1780F0B61781F441
:10071000511760F0151761F4401740F0041741F4C9
:100720003F1520F0F31621F42E1510F481E06DC072
:10073000E090E401F090E5010091E6011091E701FD
:10074000F091E801E091E9013091EA012091EB019B
:100750008091E2019091E3010A97AC0160E070E0C2
:1007600080E090E0A0E0B0E0B21709F04DC03A1789
:10077000D8F0A31709F048C0E917B0F09E1709F0A8
:1007800043C0F81788F08F1709F03EC0171760F0C4
:100790007117D1F5061740F06017B1F5F51620F086
:1007A0005F1591F5E41680F582E02FC0749A739A74
:1007B0002093D8011092D0011092CF0181E0809354
:1007C000E1018091DD01813011F585E01EC0739853
:1007D000749A8091CF019091D00101969093D001AD
:1007E0008093CF018091CF019091D001855F91409E
:1007F00030F083E08093D8011092DD0108C020938F
:10080000D80105C0749A739A83E08093D8011F9130
:100810000F91FF90EF9008951092C7011092C801B8
:1008200081E08093C90182E08093CA01AAE7B0E029
:1008300080E88C938C9187608C938C9188608C93EA
:10084000E091C701F0E0E853FE4F8081806480931F
:100850007C008C9180648C9308958091D1018823D1
:1008600079F42091C3013091C4018091C501909128
:10087000C6012817390798F481E08093D1010895C3
:10088000813069F42091C3013091C4018091C50188
:100890009091C6012817390710F01092D1010895E0
:1008A0008091B401882331F08130D1F41092B401E9
:1008B000769A08952091BA012F5F2093BA01809112
:1008C000B901821728F0769881E08093B4010895E9
:1008D00030E090E004968217930714F41092BA0166
:1008E00008956E9A1092BA0181E08093B901109236
:1008F000B401089589B180788093B10108955F9A19
:1009000089B180788093B10108958091E1018130AF
:1009100011F486E01BC08091D101813011F485E093
:1009200015C08091E001882311F483E00FC080910D
:100930008E0290918F02892B41F082E08093BE015C
:1009400010928F0210928E0203C081E08093BE014C
:100950008091BE018093B901089584B714BE84309C
:1009600089F0853028F4813041F08230A1F408C04C
:10097000883051F0803179F40BC010920001089555
:1009800081E003C082E001C083E08093000108950C
:1009900084E080930001089587E090E09093310314
:1009A000809330038091BE0190E00E942F078091D8
:1009B000D80190E00E9450078091BF019091C00142
:1009C000A091C101B091C2010E9450072091E401A1
:1009D0003091E5018091E6018091E7018091E80185
:1009E0008091E9018091EA018091EB01C9010E94A7
:1009F00050078091D9019091DA010E9450078091AF
:100A0000AF019091B0010E9450078091C301909175
:100A1000C4010E942F078091300390913103019708
:100A200090933103809330030E94D40608958091FF
:100A3000AA019091AB0101969093AB018093AA011A
:100A40008051974221F41092AB011092AA0120919B
:100A5000AA013091AB01C9016AE070E00E94CE08A2
:100A6000892B09F066C0A895C90164E170E00E9475
:100A7000CE08892B11F58091D4019091D5019093E6
:100A8000DA018093D9018091D6019091D70190939A
:100A9000B0018093AF012091D9013091DA018091AA
:100AA000AF019091B001820F931F96958795909317
:100AB000E3018093E2010E9432028091AA019091A9
:100AC000AB0164E670E00E94CE08892BF1F48091BE
:100AD000BB019091BC01892B51F08091DB01909179
:100AE000DC0101969093DC018093DB0104C010923D
:100AF000DC011092DB018091D2019091D30190939F
:100B0000C4018093C3010E9485048091AA01909141
:100B1000AB0168EC70E00E94CE08892B51F489B1DA
:100B200080788093B1010E9450040E942D040E949D
:100B3000CC0408958091EC01803509F081C080914A
:100B4000ED01863409F07CC08091EE01823509F018
:100B500077C08091EF01833591F48091F001803569
:100B600009F06EC085E090E090938D0280938C0236
:100B70000E9463089093C6018093C5010895833451
:100B800001F58091F001803509F05AC085E090E0D0
:100B900090938D0280938C020E9463089093AE0123
:100BA0008093AD0180918C0290918D028F5F9F4F59
:100BB00009F446C00E9463089093BC018093BB0176
:100BC00008958134E9F58091F0018334C1F485E022
:100BD00090E090938D0280938C020E946308AA2774
:100BE00097FDA095BA2F8093BF019093C001A09369
:100BF000C101B093C20181E08093E0010895823584
:100C0000F9F48091F2018235D9F48091F3018534B1
:100C1000B9F48091F401833599F48091F50185341C
:100C200079F48091F601843559F485E090E0909351
:100C30008D0280938C0281E08093DD018093E0013E
:100C400008950E9452088FEF9FEF9093DC018093EC
:100C5000DB0184E28093900280E58093910286E438
:100C60008093920282E58093930288E480939402B9
:100C700089E4809395029CE29093960282E38093AC
:100C800097029093980281E38093990290939A023D
:100C900080939B0290939C0280910001805D8093E1
:100CA0009D028EE090E090933103809330030E9488
:100CB000D40683E58093940284E58093950287E0CF
:100CC00090E090933103809330031092B50110921D
:100CD000B6011092B7011092B8011092CB01109298
:100CE000CC011092CD011092CE0108950E94AD0466
:100CF0001092BD011092AB011092AA0182E0809384
:100D00006E008BE084BD89EF87BD6E9A1092BA01A8
:100D100081E08093B9011092B4015F9A89B1807823
:100D20008093B10188E78DB91EB811B812B80E943E
:100D30000C040E946B0084E190E09093AE018093DC
:100D4000AD0181E090E09093BC018093BB0183E012
:100D500090E09093DC018093DB0180E491E090933C
:100D6000C6018093C5011092D1010E948504789438
:100D700028E088E190E00FB6F894A8958093600091
:100D80000FBE209360000E9421068091BD01882340
:100D900041F08091BD0181508093BD010E941705F3
:100DA000F4CF0E947107F1CF80913003909131030D
:100DB000FC01E057FD4F2AE22083BC016F5F7F4FAB
:100DC000709331036093300321E030E040E0DC01B8
:100DD00007C0F901E057FD4F808148272F5F3F4F43
:100DE0002A173B07B4F360577D4F842F90E040E112
:100DF00050E00E944B0980913003909131039C0197
:100E00002E5F3F4FFC01E057FD4FA90140575D4F5A
:100E100008C09081892F8156863010F490529083BB
:100E20003196E417F507A9F7F901E057FD4F8DE07A
:100E30008083C9010196FC01E057FD4F2AE0208321
:100E40000196FC01E057FD4F10820196909331030B
:100E50008093300380E992E00E945E0108956091E2
:100E600030037091310360577D4F4AE050E00E949B
:100E700022092091300330913103F901E057FD4FF1
:100E8000A90181912F5F3F4F8823D1F7FA01E057E5
:100E9000FD4F8CE28083309331032093300308951B
:100EA000609130037091310360577D4F4AE050E00C
:100EB0000E9422092091300330913103F901E0575B
:100EC000FD4FA90181912F5F3F4F8823D1F7FA0190
:100ED000E057FD4F8CE28083309331032093300341
:100EE0000895CF93DF93CFEFDFEF98C00E94A60164
:100EF000282F8432A9F480913203909133038F5FBD
:100F00009F4F49F080918E0290918F0201969093AD
:100F10008F0280938E0210923303109232037EC0B0
:100F20008D3019F08A3009F058C0A0913203B09189
:100F30003303A430B1050CF44BC0A930B105ECF17A
:100F4000FD01E751FE4F80818A3209F06DC0ECEE61
:100F5000F1E090E09D0127513E4F02C0819198271A
:100F6000E217F307D9F7FD01E651FE4FE081EA33BE
:100F700018F48E2F80530BC0E73418F48E2F87534C
:100F800006C0E73610F080E002C08E2F8755A551CD
:100F9000BE4FEC91EA3310F4E05309C0E73410F48B
:100FA000E75305C0E73610F0E0E001C0E755829551
:100FB000807F8E2B981719F437C01697ACF5809167
:100FC0008E0290918F02019690938F0280938E02F1
:100FD000D0933303C093320321C0809132039091A8
:100FE00033033FEF8F3F9307C9F0FC01E451FE4FFD
:100FF000208301969093330380933203803A9105C6
:1010000069F4D0933303C093320380918E029091A0
:101010008F02019690938F0280938E020E94970117
:10102000882309F063CF03C00E949A05D1CFDF91D6
:10103000CF910895CF93DF93809132039091330342
:101040001816190664F584E20E94300185E40E94B6
:10105000300185E40E94300185E40E94300185E47E
:101060000E94300185E40E9430018CE20E94300130
:10107000C0E0D0E007C0FE01E451FE4F80810E9435
:10108000300121968091320390913303C817D9071C
:1010900094F38DE00E9430018AE00E943001DF91DC
:1010A000CF9108958FEF9FEF909333038093320396
:1010B00010928F0210928E028DE00E9430018AE021
:1010C0000E9430010895FF920F931F93CF93DF93F7
:1010D00020918C0230918D02F901E451FE4F808104
:1010E0008C32A1F5E9012196FE01E451FE4F808189
:1010F0008C3261F1409132035091330301C021964B
:10110000C417D50734F480818C3219F031968A32B5
:10111000B1F78E0104511E4FF801F0801082C90111
:1011200083519E4F0E9404099C01F801F082FCE269
:10113000FF1629F4D0938D02C0938C0209C08FEF63
:101140009FEF90938D0280938C0202C020E030E0EC
:10115000C901DF91CF911F910F91FF900895629F78
:10116000D001739FF001829FE00DF11D649FE00D9F
:10117000F11D929FF00D839FF00D749FF00D659F00
:10118000F00D9927729FB00DE11DF91F639FB00DFF
:10119000E11DF91FBD01CF0111240895AA1BBB1B3E
:1011A00051E107C0AA1FBB1FA617B70710F0A61B67
:1011B000B70B881F991F5A95A9F780959095BC0188
:1011C000CD010895A1E21A2EAA1BBB1BFD010DC083
:1011D000AA1FBB1FEE1FFF1FA217B307E407F507E7
:1011E00020F0A21BB30BE40BF50B661F771F881FC3
:1011F000991F1A9469F760957095809590959B0159
:10120000AC01BD01CF010895FC0188279927E8941E
:1012100021912032E9F3293010F02E30C8F32B321F
:1012200041F02D3239F4689404C00E944309820FC2
:10123000911D219120532A30C0F31EF49095819581
:101240009F4F0895FB019F01E8944230C4F045325E
:10125000B4F44A3029F497FB1EF4909581959F4F82
:10126000642F77270E94CE08805D8A330CF0895D59
:101270008193CB010097A1F716F45DE251931082A0
:10128000C9010C9461097AE0979F902D879F802D6A
:10129000910D11240895FB019F01423074F04532F5
:1012A00064F4642F77270E94CE08805D8A330CF0A7
:1012B000895D8193CB010097A1F71082C9010C943D
:1012C0006109DC01FC01672F71917723E1F7329707
:1012D00004C07C916D9370836291AE17BF07C8F311
:0612E0000895F894FFCF11
:00000001FF
